:020000040000FA
:100000000C9462000C948A000C948A000C948A0070
:100010000C948A000C948A000C948A000C948A0038
:100020000C948A000C948A000C948A000C94FD03B2
:100030000C948A000C948A000C948A000C948A0018
:100040000C94B3030C948A000C9481030C945B030E
:100050000C948A000C948A000C948A000C948A00F8
:100060000C948A000C948A000000000024002700F1
:100070002A0000000000250028002B0000000008D6
:10008000000201000003040700000000000000005F
:1000900000000000230026002900040404040404D6
:1000A0000404020202020202030303030303010227
:1000B00004081020408001020408102001020408F6
:1000C0001020FE0411241FBECFEFD8E0DEBFCDBF4D
:1000D00011E0A0E0B1E0E4E8F1E102C005900D928A
:1000E000AE31B107D9F721E0AEE1B1E001C01D9218
:1000F000A23FB207E1F710E0C2E6D0E004C02197CA
:10010000FE010E94BA08C136D107C9F70E945B05FB
:100110000C94C0080C940000CF92DF92EF92FF92F3
:10012000DC01A03282E0B807D4F5A53BB10514F09C
:10013000A4EBB0E04091F00128E830E0241B310945
:1001400047FD3395220F331F220F331F6901330FF1
:10015000EE08FF084091F10128E532E0241B310947
:1001600047FD3395220F331F220F331F032E000C40
:10017000440B550B2C193D094E095F09B7FF02C00E
:10018000B0E0A0E00E94530724EB30E040E050E0F4
:100190000E942907C20ED31EE41EF51ED601E0916F
:1001A000EF01EC3080F52091F00188E890E0821BAF
:1001B000910927FD9395880F991F880F991FA817FC
:1001C000B90784F02091F10188E592E0821B910942
:1001D00027FD9395880F991F880F991FA817B907B6
:1001E0000CF4CD010297880F991F4FB7F8942E2F6A
:1001F00030E0F901EE0FFF1FE20FF31FE653FE4F51
:10020000928381834FBFFF90EF90DF90CF9008954E
:10021000AF92BF92CF92DF92EF92FF920F931F9314
:10022000CF93DF936C017B018B01040F151FEB0152
:100230005E01AE18BF08C017D10759F06991D60109
:10024000ED91FC910190F081E02DC6010995892B7B
:1002500079F7C501DF91CF911F910F91FF90EF903A
:10026000DF90CF90BF90AF900895FC01538D448DE7
:10027000252F30E0842F90E0821B930B541710F051
:10028000CF96089501970895FC01918D828D98175E
:1002900061F0A28DAE0FBF2FB11D5D968C91928D36
:1002A0009F5F9F73928F90E008958FEF9FEF089567
:1002B000FC01918D828D981731F0828DE80FF11D30
:1002C000858D90E008958FEF9FEF0895FC01918D4B
:1002D000228D892F90E0805C9F4F821B91098F7344
:1002E000992708958DE291E00E94660121E0892B13
:1002F00009F420E0822F089580E090E0892B29F016
:100300000E94720181110C9400000895FC01A48DDB
:10031000A80FB92FB11DA35ABF4F2C91848D90E027
:1003200001968F739927848FA689B7892C93A0890A
:10033000B1898C91837080648C93938D848D981394
:1003400006C00288F389E02D80818F7D8083089527
:10035000EF92FF920F931F93CF93DF93EC0181E015
:10036000888F9B8D8C8D98131AC0E889F9898081BC
:1003700085FF15C09FB7F894EE89FF896083E889EF
:10038000F98980818370806480839FBF81E090E0E1
:10039000DF91CF911F910F91FF90EF900895F62E6E
:1003A0000B8D10E00F5F1F4F0F731127E02E8C8D08
:1003B0008E110CC00FB607FCFACFE889F98980814D
:1003C00085FFF5CFCE010E948601F1CFEB8DEC0FBA
:1003D000FD2FF11DE35AFF4FF0829FB7F8940B8F6A
:1003E000EA89FB8980818062CFCFCF93DF93EC01D4
:1003F000888D8823B9F0AA89BB89E889F9898C910D
:1004000085FD03C0808186FD0DC00FB607FCF7CFC8
:100410008C9185FFF2CF808185FFEDCFCE010E94C8
:100420008601E9CFDF91CF91089590E0FC01E45877
:10043000FF4F2491FC01E255FF4F3491FC01E65639
:10044000FF4FE491EE23C9F0222339F0233001F16C
:10045000A8F4213019F1223029F1F0E0EE0FFF1F4E
:10046000EE58FF4FA591B4918FB7F894EC916111BC
:1004700026C030953E233C938FBF08952730A9F0C6
:100480002830C9F0243049F7809180008F7D03C067
:10049000809180008F7780938000DFCF84B58F7745
:1004A00084BDDBCF84B58F7DFBCF8091B0008F778B
:1004B0008093B000D2CF8091B0008F7DF9CF3E2BDA
:1004C000DACFCF93DF9390E0FC01E255FF4F249108
:1004D00086569F4FFC0184918823D1F090E0880FCD
:1004E000991FFC01E859FF4FA591B491FC01EE580A
:1004F000FF4FC591D49161110EC09FB7F8948C91B4
:10050000E22FE0958E238C932881E223E8839FBF1E
:10051000DF91CF9108958FB7F894EC91E22BEC9393
:100520008FBFF6CF3FB7F8948091240190912501B9
:10053000A0912601B091270126B5A89B05C02F3FA9
:1005400019F00196A11DB11D3FBFBA2FA92F982FF9
:100550008827BC01CD01620F711D811D911D42E0F4
:10056000660F771F881F991F4A95D1F708958F92BC
:100570009F92AF92BF92CF92DF92EF92FF924B0188
:100580005C010E9492026B017C010E9492026C1934
:100590007D098E099F09683E734081059105A8F386
:1005A00021E0821A9108A108B10888EEC80E83E004
:1005B000D81EE11CF11C81149104A104B10429F797
:1005C000FF90EF90DF90CF90BF90AF909F908F9073
:1005D0000895FC0101900020E9F73197AF01481B15
:1005E000590BBC018DE291E00C9408018F929F920F
:1005F000AF92BF920F931F93CF93DF93CDB7DEB728
:10060000A1970FB6F894DEBF0FBECDBF19A242303E
:1006100008F44AE08E010F5D1F4F842E912CB12CFF
:10062000A12CA50194010E945B07E62FB901CA0124
:10063000EA30F4F4E05DD801EE938D01232B242BF6
:10064000252B79F790E080E0109719F0CD010E94FA
:10065000E902A1960FB6F894DEBF0FBECDBFDF91C1
:10066000CF911F910F91BF90AF909F908F90089561
:10067000E95CE1CFCF92DF92EF92FF92CF93DF93CD
:100680006B017C016DE28DE291E00E94A801EC011A
:1006900066277727CB016C197D098E099F094AE0EF
:1006A0000E94F6028C0F9D1FDF91CF91FF90EF907B
:1006B000DF90CF9008951F920F920FB60F921124E2
:1006C0002F933F934F935F936F937F938F939F935A
:1006D000AF93BF93EF93FF938DE291E00E94860169
:1006E000FF91EF91BF91AF919F918F917F916F910A
:1006F0005F914F913F912F910F900FBE0F901F90E0
:1007000018951F920F920FB60F9211242F938F936B
:100710009F93EF93FF93E0913D01F0913E01808123
:10072000E0914301F091440182FD1BC090818091D2
:1007300046018F5F8F7320914701821741F0E0914E
:100740004601F0E0E35DFE4F958F80934601FF91F7
:10075000EF919F918F912F910F900FBE0F901F904F
:1007600018958081F4CF1F920F920FB60F9211242B
:100770002F933F938F939F93AF93BF9380912001CB
:1007800090912101A0912201B091230130911F018C
:1007900023E0230F2D3758F50196A11DB11D20939D
:1007A0001F018093200190932101A0932201B09317
:1007B00023018091240190912501A0912601B091FF
:1007C00027010196A11DB11D80932401909325015D
:1007D000A0932601B0932701BF91AF919F918F9174
:1007E0003F912F910F900FBE0F901F90189526E804
:1007F000230F0296A11DB11DD2CF1F920F920FB6EB
:100800000F9211242F933F934F935F936F937F9396
:100810008F939F93AF93BF93CF93DF93EF93FF9308
:1008200080911E01C091EE01D0E087FF24C010929C
:1008300085001092840080911E018F5F80931E01BD
:1008400080911E01082E000C990B8C179D0724F433
:1008500080911E018C30C4F18091840090918500BC
:10086000049680349C4908F47AC080918400909169
:100870008500049676C080911E01082E000C990B0D
:100880008C179D07C4F6E0911E018E2FEE0F990B79
:10089000FC01EE0FFF1FE80FF91FE653FE4F8081AA
:1008A00086FFC9CFE0911E018E2FEE0F990BFC0140
:1008B000EE0FFF1FE80FF91FE653FE4F808160E047
:1008C0008F730E941502B7CF20918400309185006C
:1008D000E0911E018E2FEE0F990BFC01EE0FFF1F12
:1008E000E80FF91FE653FE4F81819281820F931F1B
:1008F0009093890080938800E0911E018E2FEE0F67
:10090000990BFC01EE0FFF1FE80FF91FE653FE4F96
:10091000808186FF11C0E0911E018E2FEE0F990B92
:10092000FC01EE0FFF1FE80FF91FE653FE4F808119
:1009300061E08F730E941502FF91EF91DF91CF91DB
:10094000BF91AF919F918F917F916F915F914F91E7
:100950003F912F910F900FBE0F901F90189580E43C
:100960009CE990938900809388008FEF80931E010B
:10097000E3CFCF92DF92EF92FF920F931F93E82F76
:10098000F92F05C0015011092109310961F1908148
:1009900096239417B9F305C00150110921093109B3
:1009A00011F1908196239413F7CFC12CD12CE12C17
:1009B000F12C0AC08FEFC81AD80AE80AF80A0C15F9
:1009C0001D052E053F0579F080818623841791F35C
:1009D0006C2D7D2D8E2D9F2D1F910F91FF90EF90EF
:1009E000DF90CF90089560E070E080E090E01F918C
:1009F0000F91FF90EF90DF90CF900895109230010B
:100A000010922F0188EE93E0A0E0B0E080933101D6
:100A100090933201A0933301B093340184E091E0CC
:100A200090932E0180932D0185EC90E090933A01F4
:100A30008093390184EC90E090933C0180933B01DA
:100A400080EC90E090933E0180933D0181EC90E03A
:100A50009093400180933F0182EC90E0909342019B
:100A60008093410186EC90E0909344018093430190
:100A700010924601109247011092480110924901CC
:100A80008091EE018C3098F491E0980F9093EE01F4
:100A90008093EF0190E0FC01EE0FFF1FE80FF91FBC
:100AA000E653FE4F88EB9BE09283818308958FEF9E
:100AB0008093EF010895789484B5826084BD84B5F5
:100AC000816084BD85B5826085BD85B5816085BD49
:100AD00080916E00816080936E0010928100809101
:100AE0008100826080938100809181008160809389
:100AF0008100809180008160809380008091B100AE
:100B000084608093B1008091B00081608093B000D8
:100B100080917A00846080937A0080917A0082606C
:100B200080937A0080917A00816080937A0080912E
:100B30007A00806880937A001092C100E0913D01B4
:100B4000F0913E0182E08083E0913901F0913A0119
:100B50001082E0913B01F0913C018FEC8083109278
:100B60004501E0914101F091420186E08083E091EE
:100B70003F01F0914001808180618083E0913F01DD
:100B8000F0914001808188608083E0913F01F09185
:100B90004001808180688083E0913F01F0914001B5
:100BA00080818F7D80838091EF018C3008F051C06F
:100BB00061E088E00E9461028091EF01282F30E01F
:100BC000F901EE0FFF1FE20FF31FE653FE4F908176
:100BD000907C986090831092F0011092F1012CE0CB
:100BE000622F0E94AE08829FB001112430E020E005
:100BF000AB01420F531FFA01EE0FFF1FE40FF51F69
:100C0000E653FE4F908196FD16C02F5F3F4F2C306C
:100C1000310571F781110FC01092800082E080933E
:100C200081001092850010928400B19A80916F002B
:100C3000826080936F00E091EF018E2F90E0FC01C5
:100C4000EE0FFF1FE80FF91FE653FE4F808180640F
:100C5000808393E2292E312C24E9822E912CA12C21
:100C6000B12C3AE3432E512C612C712CC0E0D0E022
:100C700061E088E00E94610210922801109229012F
:100C800010922A0110922B01C0902801D0902901C6
:100C9000E0902A01F0902B0120E030E044EB52E498
:100CA000C701B6010E94F9071816F4F0C701B60192
:100CB0000E94FE07CB010E948C0065E070E080E09E
:100CC00090E00E94B70220E030E040E05FE3C7011F
:100CD000B6010E948D0760932801709329018093CB
:100CE0002A0190932B01D0CF81E080932C0161E009
:100CF00087E00E94610260E087E00E94150283E0C5
:100D000090E00197F1F761E087E00E941502C101D0
:100D10000197F1F760E087E00E94150260E086E04D
:100D20000E946102E4EBF0E06491E0EAF0E084917B
:100D3000E82FF0E0EE0FFF1FE057FF4F85919491F1
:100D400000E412E42FE030E0462F0E94B9046B016A
:100D50007C01C114D104E104F10439F0FFEFCF1A92
:100D6000DF0AEF0AFF0A8FE0F822C701B601A501EA
:100D700094010E942907CA01B9014AE00E94F602C3
:100D800082E191E00E94E902C701B601A30192014C
:100D90000E942907CA01B9014AE00E94F60287E1D0
:100DA00091E00E94E9028AE191E00E94E90264E692
:100DB00070E080E090E00E94B70280E090E0A4EB59
:100DC000B2E48093280190932901A0932A01B09363
:100DD0002B01C0902801D0902901E0902A01F090C9
:100DE0002B0120E030E0A901C701B6010E94A9084B
:100DF00087FD1EC0C701B6010E94FE07CB010E94FD
:100E00008C0065E070E080E090E00E94B70220E096
:100E100030E040E05FE3C701B6010E948C076093B9
:100E200028017093290180932A0190932B01D1CF3F
:100E300010922C0160E088E00E946102209709F482
:100E400017CF0E947201882309F412CF0E9400007C
:100E50000FCF052E97FB1EF400940E94400757FD0C
:100E600007D00E945B0707FC03D04EF40C944007A8
:100E700050954095309521953F4F4F4F5F4F0895C6
:100E800090958095709561957F4F8F4F9F4F0895F6
:100E90000E947D07A59F900DB49F900DA49F800D8B
:100EA000911D11240895B7FF0C9448070E9448072C
:100EB000821B930B0895A1E21A2EAA1BBB1BFD01F6
:100EC0000DC0AA1FBB1FEE1FFF1FA217B307E40729
:100ED000F50720F0A21BB30BE40BF50B661F771F81
:100EE000881F991F1A9469F7609570958095909561
:100EF0009B01AC01BD01CF010895A29FB001B39F3A
:100F0000C001A39F700D811D1124911DB29F700D12
:100F1000811D1124911D08955058BB27AA270E94B6
:100F2000A4070C946F080E94610838F00E946808BA
:100F300020F039F49F3F19F426F40C945E080EF467
:100F4000E095E7FB0C945808E92F0E94800858F3BD
:100F5000BA17620773078407950720F079F4A6F59E
:100F60000C94A2080EF4E0950B2EBA2FA02D0B01C5
:100F7000B90190010C01CA01A0011124FF27591BDE
:100F800099F0593F50F4503E68F11A16F040A22FE4
:100F9000232F342F4427585FF3CF46953795279555
:100FA000A795F0405395C9F77EF41F16BA0B620B54
:100FB000730B840BBAF09150A1F0FF0FBB1F661F9B
:100FC000771F881FC2F70EC0BA0F621F731F841FDE
:100FD00048F4879577956795B795F7959E3F08F004
:100FE000B0CF9395880F08F09927EE0F97958795C6
:100FF00008950E94340808F481E008950E940508CD
:101000006894B1110C94A30808950E94880888F090
:101010009F5798F0B92F9927B751B0F0E1F0660FBC
:10102000771F881F991F1AF0BA95C9F714C0B130FD
:1010300091F00E94A208B1E008950C94A208672FD5
:10104000782F8827B85F39F0B93FCCF3869577952C
:101050006795B395D9F73EF4909580957095619515
:101060007F4F8F4F9F4F0895990F0008550FAA0B80
:10107000E0E8FEEF16161706E807F907C0F01216AB
:101080001306E407F50798F0621B730B840B950BAE
:1010900039F40A2661F0232B242B252B21F4089503
:1010A0000A2609F4A140A6958FEF811D811D0895A0
:1010B00097F99F6780E870E060E008959FEF80EC0B
:1010C000089500240A9416161706180609060895AE
:1010D00000240A9412161306140605060895092E14
:1010E0000394000C11F4882352F0BB0F40F4BF2B83
:1010F00011F460FF04C06F5F7F4F8F4F9F4F0895C3
:1011000057FD9058440F551F59F05F3F71F04795B8
:10111000880F97FB991F61F09F3F79F0879508959D
:10112000121613061406551FF2CF4695F1DF08C0BC
:10113000161617061806991FF1CF869571056105D9
:1011400008940895E894BB2766277727CB0197F981
:1011500008950E94340808F48FEF0895991B79E0F0
:1011600004C0991F961708F0961B881F7A95C9F737
:1011700080950895EE0FFF1F0590F491E02D0994DE
:10118000F894FFCF00000000A80108013501F50127
:10119000660144015801696E2C2000636D000D0A40
:0211A00000004D
:107E0000112484B714BE81FFF0D085E080938100F7
:107E100082E08093C00088E18093C10086E0809377
:107E2000C20080E18093C4008EE0C9D0259A86E02C
:107E300020E33CEF91E0309385002093840096BBD3
:107E4000B09BFECF1D9AA8958150A9F7CC24DD24C4
:107E500088248394B5E0AB2EA1E19A2EF3E0BF2EE7
:107E6000A2D0813461F49FD0082FAFD0023811F036
:107E7000013811F484E001C083E08DD089C08234E0
:107E800011F484E103C0853419F485E0A6D080C0E4
:107E9000853579F488D0E82EFF2485D0082F10E0AE
:107EA000102F00270E291F29000F111F8ED06801E7
:107EB0006FC0863521F484E090D080E0DECF843638
:107EC00009F040C070D06FD0082F6DD080E0C81688
:107ED00080E7D80618F4F601B7BEE895C0E0D1E017
:107EE00062D089930C17E1F7F0E0CF16F0E7DF06D8
:107EF00018F0F601B7BEE89568D007B600FCFDCFD4
:107F0000A601A0E0B1E02C9130E011968C91119780
:107F100090E0982F8827822B932B1296FA010C0160
:107F200087BEE89511244E5F5F4FF1E0A038BF0790
:107F300051F7F601A7BEE89507B600FCFDCF97BE46
:107F4000E89526C08437B1F42ED02DD0F82E2BD052
:107F50003CD0F601EF2C8F010F5F1F4F84911BD097
:107F6000EA94F801C1F70894C11CD11CFA94CF0C13
:107F7000D11C0EC0853739F428D08EE10CD085E9AC
:107F80000AD08FE07ACF813511F488E018D01DD067
:107F900080E101D065CF982F8091C00085FFFCCF94
:107FA0009093C60008958091C00087FFFCCF809118
:107FB000C00084FD01C0A8958091C6000895E0E648
:107FC000F0E098E1908380830895EDDF803219F02E
:107FD00088E0F5DFFFCF84E1DECF1F93182FE3DFCA
:107FE0001150E9F7F2DF1F91089580E0E8DFEE27F6
:047FF000FF270994CA
:027FFE00040479
:00000001FF
